:020000040000FA
:100000009228B4003C202008210403198D28872061
:1000100084133408800664000D280E28A00A0319F2
:10002000A10F0B2880068D28A300360884008417B2
:10003000340980058413A30803198D28F030A50026
:1000400022088038A400F030A5030319A500031985
:10005000A30303198D282C284020030120183408FD
:10006000A21F3408A20803190301A40F392880062F
:1000700020283A2800002328FF3A841780058D287D
:10008000210820040319A00A8030201AA106201993
:10009000A106A018A106210DA00DA10D8D28A30178
:1000A000A200FF30A207031CA307031C8D28033006
:1000B000A100DF305D205128A101E83EA000A10988
:1000C000FC30031C6628A00703186328A0076400FF
:1000D000A10F632820186C28A01C7028000070282D
:1000E00008001030A800A101A001A70CA60C031C59
:1000F0007F282208A00723080318230FA107A10CBB
:10010000A00CA50CA40CA80B752824088D28A00908
:10011000A109A00A0319A10A08008313031383127B
:10012000640008008316FF308500071687158312C8
:100130001E30C3000530C1000530C6008A11A12160
:100140003D1807143D1C07103E1887143E1C8710ED
:100150003D08A600A7010230A200A3018A01712078
:10016000BA002508BB003A083E07BC003C08033C27
:100170008A11031CC62800308A003C08C23E0318BE
:100180008A0A8200C628DA2865291429AA30C20002
:100190008A11CC21A030C000A030C5008A11CC212A
:1001A0006430C2008A11CC217830C0007830C5009C
:1001B0008A11CC210630B6008030B4008C30A20009
:1001C00001308A0114205030A20002308A0114202C
:1001D0007D30A20001308A0114205F30A20002307D
:1001E0008A0114200130C7006400033047028A11DD
:1001F00003181229AA30C2008A11CC217830C0001D
:10020000A030C5008A11CC216430C2008A11CC21F3
:10021000A030C0007830C5008A11CC21C70A8A11ED
:10022000031DF4288A019E280630B6008030B400F1
:100230005A30A20001308A0114205030A20002304E
:100240008A0114207D30A20001308A0114205A3026
:10025000A20002308A0114206430A20002308A0118
:1002600014200130C7006400033047028A110318CC
:100270005129AA30C2008A11CC217830C0007830D0
:10028000C5008A11CC216430C2008A11CC21A03073
:10029000C000A030C5008A11CC21C70A8A11031DF5
:1002A00033293808A0003908A1008A01402020081D
:1002B000B8002108B90064008A11381C63298A112A
:1002C00065218A1165298A01DA200630B60080305E
:1002D000B4008C30A20001308A0114207830A200D2
:1002E00002308A0114206E30A20001308A011420ED
:1002F0006430A20002308A0114200130C70064007B
:10030000033047028A1103189D29AA30C2008A11BE
:10031000CC21A030C0007830C5008A11CC216430D7
:10032000C2008A11CC217830C000A030C5008A11EB
:10033000CC21C70A8A11031D7F298A019E288A01C0
:100340009E28BF01C401BE01BD010130C700640089
:10035000470843028A11031CBB2964008A11071A4B
:10036000B229BF0A64008A118719B729C40AC70ACB
:100370008A11031DA729640041083F028A11031C4A
:10038000C3290130BD006400460844028A11031CE1
:10039000CB290130BD0008000130C80064000B30DB
:1003A00048028A110318F3294208A000A101053070
:1003B000840004308A0101204008A000A10105301A
:1003C000840002308A0101204508A000A101053007
:1003D000840001308A0101200D308A014F20C80AB3
:0E03E0008A11031DCE29080063008A01F4294A
:02400E00FC3F75
:00000001FF
