:020000040000FA
:100000005F28A30036088400841734098005841310
:10001000A30803195A28F030A50022088038A4004C
:10002000F030A5030319A5000319A30303195A28E7
:1000300019282920030120183408A21F3408A20817
:1000400003190301A40F262880060D282728000085
:100050001028210820040319A00A8030201AA106C4
:100060002019A106A018A106210DA00DA10D5A2846
:10007000A301A200FF30A207031CA307031C5A28F8
:100080000330A100DF3046203A28A101E83EA0005D
:10009000A109FC30031C4F28A00703184C28A00717
:1000A0006400A10F4C2820185528A01C59280000D6
:1000B000592808008313031383126400080087146F
:1000C0008316871083120714831607108312861372
:1000D0008316861383120330A300E8308A01392087
:1000E0008710831687108312071083160710831258
:1000F00086178316861383120330A300E8308A0123
:1001000039208A015F283808A0003908A1008A0137
:1001100029202008B8002108B9005F303805BA004E
:100120000630B6008030B4003A08A20004308A01DC
:0A0130000120080063008A019A28EC
:02400E00FC3F75
:00000001FF
