:020000040000FA
:100000004528B400142020082104031940283A2070
:1000100084133408800664000D280E28A00A0319F2
:10002000A10F0B2880064028FF3A8417800540283E
:10003000A301A200FF30A207031CA307031C402852
:100040000330A100DF3026201A28A101E83EA000DD
:10005000A109FC30031C2F28A00703182C28A00797
:100060006400A10F2C2820183528A01C3928000076
:1000700039280800A009A109A00A0319A10A08004B
:1000800083130313831264000800BB01B901BA0192
:100090000C30B8008C30BA008C30B9008C30BB000A
:1000A0008A1157200330A300E8308A01192001305B
:1000B000BC00640015303C028A1103187E283A08FF
:1000C000A000A1010530840002308A010120390816
:1000D000A000A1010530840001308A0101203B0805
:1000E000A000A1010530840004308A0101203808F5
:1000F0008A011820BC0A8A11031D592808008A01A8
:020100004A288B
:02400E00FC3F75
:00000001FF
