:020000040000FA
:100000004528B400142020082104031940283A2070
:1000100084133408800664000D280E28A00A0319F2
:10002000A10F0B2880064028FF3A8417800540283E
:10003000A301A200FF30A207031CA307031C402852
:100040000330A100DF3026201A28A101E83EA000DD
:10005000A109FC30031C2F28A00703182C28A00797
:100060006400A10F2C2820183528A01C3928000076
:1000700039280800A009A109A00A0319A10A08004B
:10008000831303138312640008000130B800640076
:10009000653038028A1103185C288C30A000A10159
:1000A0000530840001308A0101200A308A011820BD
:1000B000B80A8A11031D47280330A300E8308A01DB
:1000C000192007148316071083120330A300E830A9
:1000D0008A01192007108316071083120330A3002A
:0A00E000E8308A0119208A01452842
:02400E00FC3F75
:00000001FF
