:020000040000FA
:100000005F28A30036088400841734098005841310
:10001000A30803195A28F030A50022088038A4004C
:10002000F030A5030319A5000319A30303195A28E7
:1000300019282920030120183408A21F3408A20817
:1000400003190301A40F262880060D282728000085
:100050001028210820040319A00A8030201AA106C4
:100060002019A106A018A106210DA00DA10D5A2846
:10007000A301A200FF30A207031CA307031C5A28F8
:100080000330A100DF3046203A28A101E83EA0005D
:10009000A109FC30031C4F28A00703184C28A00717
:1000A0006400A10F4C2820185528A01C59280000D6
:1000B00059280800831303138312640008008A116F
:1000C00061200130B80064000B3038028A11031837
:1000D00088280630B6008030B4004630A2000430D4
:1000E0008A01012007148316071083120730A3002A
:1000F000D0308A0139200710831607108312073089
:10010000A300D0308A013920B80A8A11031D632860
:0C01100008008A015F2863008A018B2828
:02400E00FC3F75
:00000001FF
