:020000040000FA
:100000004528B400142020082104031940283A2070
:1000100084133408800664000D280E28A00A0319F2
:10002000A10F0B2880064028FF3A8417800540283E
:10003000A301A200FF30A207031CA307031C402852
:100040000330A100DF3026201A28A101E83EA000DD
:10005000A109FC30031C2F28A00703182C28A00797
:100060006400A10F2C2820183528A01C3928000076
:1000700039280800A009A109A00A0319A10A08004B
:100080008313031383126400080083160510851080
:10009000051183120510851005118C30B9008C30C4
:1000A000B8008C30BA000130BB00640006303B025F
:1000B0008A1103186F28AA30B9007830B800783058
:1000C000BA008A116F206E30B900A030B800A0309D
:1000D000BA008A116F20BB0A8A11031D552801300E
:1000E000BC0064000B303C028A11031896283A08C1
:1000F000A000A1010530840001308A0101203808E8
:10010000A000A1010530840002308A0101203908D5
:10011000A000A1010530840004308A0101201430C0
:100120008A011820BC0A8A11031D712808008A015F
:08013000532863008A0199289D
:02400E00FC3F75
:00000001FF
