:020000040000FA
:100000004528B400142020082104031940283A2070
:1000100084133408800664000D280E28A00A0319F2
:10002000A10F0B2880064028FF3A8417800540283E
:10003000A301A200FF30A207031CA307031C402852
:100040000330A100DF3026201A28A101E83EA000DD
:10005000A109FC30031C2F28A00703182C28A00797
:100060006400A10F2C2820183528A01C3928000076
:1000700039280800A009A109A00A0319A10A08004B
:100080008313031383126400080005108510051103
:100090008C30B9008C30B8008C30BA000130BB0015
:1000A000640006303B028A1103186E28AA30B9009A
:1000B0008A11D020A030B800A030BA008A11D02018
:1000C0006430B9008A11D0207830B8007830BA0096
:1000D0008A11D020BB0A8A11031D50280130BB00B1
:1000E000640004303B028A1103188E28AA30B9003C
:1000F0008A11D0207830B800A030BA008A11D02000
:100100006430B9008A11D020A030B8007830BA002D
:100110008A11D020BB0A8A11031D70280130BB0050
:10012000640006303B028A110318AE28AA30B900D9
:100130008A11D0207830B8007830BA008A11D020E7
:100140006430B9008A11D020A030B800A030BA00C5
:100150008A11D020BB0A8A11031D90280130BB00F0
:10016000640004303B028A110318CE28B430B90071
:100170008A11D020A030B8007830BA008A11D0207F
:100180006430B9008A11D0207830B800A030BA00AD
:100190008A11D020BB0A8A11031DB0288A014E287B
:1001A0000130BC0064000B303C028A110318F728B0
:1001B0003908A000A1010530840001308A01012026
:1001C0003808A000A1010530840002308A01012016
:1001D0003A08A000A1010530840004308A01012002
:1001E0000D308A011820BC0A8A11031DD22808008C
:0601F00063008A01F828FB
:02400E00FC3F75
:00000001FF
